:100000000C9462000C948A000C948A000C948A0070
:100010000C948A000C948A000C948A000C948A0038
:100020000C948A000C948A000C948A000C948A0028
:100030000C948A000C948A000C948A000C948A0018
:100040000C9420040C948A000C94EE030C94C803C6
:100050000C948A000C948A000C948A000C948A00F8
:100060000C948A000C948A000000000024002700F1
:100070002A0000000000250028002B0000000008D6
:10008000000201000003040700000000000000005F
:1000900000000000230026002900040404040404D6
:1000A0000404020202020202030303030303010227
:1000B00004081020408001020408102001020408F6
:1000C0001020AF0411241FBECFEFD8E0DEBFCDBF9C
:1000D00011E0A0E0B1E0EAEDFFE002C005900D9272
:1000E000A035B107D9F722E0A0E5B1E001C01D922B
:1000F000AE30B207E1F710E0C2E6D0E004C02197CD
:10010000FE010E94E507C136D107C9F70E94F90434
:100110000C94EB070C940000AF92BF92CF92DF9249
:10012000EF92FF920F931F93CF93DF936C017B01AC
:100130008B01040F151FEB015E01AE18BF08C0173D
:10014000D10759F06991D601ED91FC910190F081B0
:10015000E02DC6010995892B79F7C501DF91CF9173
:100160001F910F91FF90EF90DF90CF90BF90AF90D5
:100170000895FC01538D448D252F30E0842F90E0AD
:10018000821B930B541710F0CF9608950197089592
:10019000FC01918D828D981761F0A28DAE0FBF2F5B
:1001A000B11D5D968C91928D9F5F9F73928F90E0B1
:1001B00008958FEF9FEF0895FC01918D828D981720
:1001C00031F0828DE80FF11D858D90E008958FEF5D
:1001D0009FEF0895FC01918D228D892F90E0805C26
:1001E0009F4F821B91098F739927089589E591E0AC
:1001F0000E94EA0021E0892B09F420E0822F089573
:1002000080E090E0892B29F00E94F60081110C9487
:1002100000000895FC01A48DA80FB92FB11DA35AA9
:10022000BF4F2C91848D90E001968F739927848F16
:10023000A689B7892C93A089B1898C918370806439
:100240008C93938D848D981306C00288F389E02DDA
:1002500080818F7D80830895EF92FF920F931F938B
:10026000CF93DF93EC0181E0888F9B8D8C8D981369
:100270001AC0E889F989808185FF15C09FB7F89475
:10028000EE89FF896083E889F989808183708064C1
:1002900080839FBF81E090E0DF91CF911F910F910C
:1002A000FF90EF900895F62E0B8D10E00F5F1F4F1B
:1002B0000F731127E02E8C8D8E110CC00FB607FC2A
:1002C000FACFE889F989808185FFF5CFCE010E94B8
:1002D0000A01F1CFEB8DEC0FFD2FF11DE35AFF4F1B
:1002E000F0829FB7F8940B8FEA89FB898081806246
:1002F000CFCFCF93DF93EC01888D8823B9F0AA8903
:10030000BB89E889F9898C9185FD03C0808186FDD0
:100310000DC00FB607FCF7CF8C9185FFF2CF80811F
:1003200085FFEDCFCE010E940A01E9CFDF91CF9189
:10033000089590E0FC01E458FF4F2491FC01E25540
:10034000FF4F3491FC01E656FF4FE491EE23C9F0D4
:10035000222339F0233001F1A8F4213019F12230A1
:1003600029F1F0E0EE0FFF1FEE58FF4FA591B49179
:100370008FB7F894EC91611126C030953E233C93E1
:100380008FBF08952730A9F02830C9F0243049F7ED
:10039000809180008F7D03C0809180008F77809353
:1003A0008000DFCF84B58F7784BDDBCF84B58F7DB0
:1003B000FBCF8091B0008F778093B000D2CF809137
:1003C000B0008F7DF9CF3E2BDACFCF93DF9390E053
:1003D000FC01E255FF4F249186569F4FFC0184910A
:1003E0008823D1F090E0880F991FFC01E859FF4F56
:1003F000A591B491FC01EE58FF4FC591D4916111C4
:100400000EC09FB7F8948C91E22FE0958E238C93C9
:100410002881E223E8839FBFDF91CF9108958FB7B2
:10042000F894EC91E22BEC938FBFF6CF3FB7F894A2
:100430008091550190915601A0915701B0915801BA
:1004400026B5A89B05C02F3F19F00196A11DB11D2F
:100450003FBFBA2FA92F982F8827BC01CD01620F6B
:10046000711D811D911D42E0660F771F881F991F26
:100470004A95D1F708958F929F92AF92BF92CF92F3
:10048000DF92EF92FF924B015C010E9416026B011A
:100490007C010E9416026C197D098E099F09683E35
:1004A000734081059105A8F321E0821A9108A10803
:1004B000B10888EEC80E83E0D81EE11CF11C81143F
:1004C0009104A104B10429F7FF90EF90DF90CF9041
:1004D000BF90AF909F908F900895089590E080E036
:1004E0000895CF93DF93EC0160E08E810E94990123
:1004F00061E08E810E94990160E08E810E949901E5
:100500008BE891E00197F1F7DF91CF910895CF92B9
:10051000DF92EF92FF920F931F93CF93DF936C01C3
:100520007C0187E0E80EF11CD0E0C0E0062F10E06F
:10053000B8010C2E02C0759567950A94E2F76170B8
:10054000F70181917F010E9499012196C430D10564
:1005500079F7C601DF91CF911F910F91FF90EF9036
:10056000DF90CF900C947102CF92DF92EF92FF92C6
:100570000F931F93CF93DF93EC01F62E642F8C81A2
:100580000E9499018D818F3F19F060E00E949901CE
:100590000F2D10E08F8584FF25C06E0187E0C80E07
:1005A000D11CF12CE12CB8010E2C02C07595679579
:1005B0000A94E2F76170F60181916F010E9499013E
:1005C000FFEFEF1AFF0A88E0E816F10461F7CE01A9
:1005D000DF91CF911F910F91FF90EF90DF90CF901F
:1005E0000C947102B80184E0759567958A95E1F7DE
:1005F000CE010E9487026F2DCE01DF91CF911F9116
:100600000F91FF90EF90DF90CF900C94870240E025
:10061000682F86EF91E00C94B402CF93DF93823081
:1006200029F4909105029860909305028093090245
:1006300010920A0280E480930B0280E180930C0206
:1006400080E580930D0261E08091FA010E94E5014E
:100650008091FB018F3F19F061E00E94E50161E0AC
:100660008091FC010E94E501C6EFD1E09E01265F6A
:1006700031408091050284FD0BC084E090E021961A
:100680002817390744F461E08E810E94E501EECF1E
:1006900088E090E0F4CF8BE39DE00197F1F760E014
:1006A0008091FA010E94990160E08091FC010E9412
:1006B00099018091FB018F3F19F060E00E94990140
:1006C0008091050284FD39C063E086EF91E00E94CD
:1006D0008702CBE4D6E4CE010197F1F763E086EF21
:1006E00091E00E9487022197F1F763E086EF91E0A5
:1006F0000E94870283E592E00197F1F762E086EFBE
:1007000091E00E9487028091050280620E940703A7
:1007100084E0809306028CE00E94070381E00E943F
:1007200007038BE39FE10197F1F782E080930702D3
:1007300086E0DF91CF910C94070380620E9407034B
:100740008BE496E40197F1F78091050280620E94A4
:10075000070383E592E00197F1F78091050280623B
:100760000E940703D0CF41E00E94B40281E090E0F4
:100770000895FB0101900020E9F73197AF01461B76
:10078000570BDC01ED91FC910280F381E02D09947F
:100790001F920F920FB60F9211242F933F934F93F6
:1007A0005F936F937F938F939F93AF93BF93EF93D9
:1007B000FF9389E591E00E940A01FF91EF91BF91BB
:1007C000AF919F918F917F916F915F914F913F91E9
:1007D0002F910F900FBE0F901F9018951F920F92A0
:1007E0000FB60F9211242F938F939F93EF93FF9344
:1007F000E0916901F0916A018081E0916F01F091CF
:10080000700182FD1BC09081809172018F5F8F7398
:1008100020917301821741F0E0917201F0E0E75AF4
:10082000FE4F958F80937201FF91EF919F918F9171
:100830002F910F900FBE0F901F9018958081F4CFCD
:100840001F920F920FB60F9211242F933F938F9305
:100850009F93AF93BF938091510190915201A091CA
:100860005301B09154013091500123E0230F2D37F3
:1008700058F50196A11DB11D20935001809351019F
:1008800090935201A0935301B0935401809155016C
:1008900090915601A0915701B09158010196A11D68
:1008A000B11D8093550190935601A0935701B093C9
:1008B0005801BF91AF919F918F913F912F910F90D0
:1008C0000FBE0F901F90189526E8230F0296A11DCA
:1008D000B11DD2CFCF92DF92EF92FF920F931F9371
:1008E000E82FF92F05C0015011092109310961F1E3
:1008F000908196239417B9F305C00150110921097D
:10090000310911F1908196239413F7CFC12CD12C8A
:10091000E12CF12C0AC08FEFC81AD80AE80AF80AAD
:100920000C151D052E053F0579F08081862384175F
:1009300091F36C2D7D2D8E2D9F2D1F910F91FF908A
:10094000EF90DF90CF90089560E070E080E090E05D
:100950001F910F91FF90EF90DF90CF900895E9E500
:10096000F1E01382128288EE93E0A0E0B0E084838D
:100970009583A683B78384E091E09183808385EC9F
:1009800090E09587848784EC90E09787868780EC59
:1009900090E0918B808B81EC90E0938B828B82EC4A
:1009A00090E0958B848B86EC90E0978B868B118EF4
:1009B000128E138E148EE6EFF1E01382128286E11E
:1009C00091E0918380838CE084838FEF85838BE03B
:1009D00086838DE087838AE0808789E0818788E04D
:1009E00082871386148615861686178681E00C94F6
:1009F0000D03CF93DF93CDB7DEB7A1970FB6F89471
:100A0000DEBF0FBECDBF789484B5826084BD84B54F
:100A1000816084BD85B5826085BD85B5816085BDF9
:100A200080916E00816080936E00109281008091B1
:100A30008100826080938100809181008160809339
:100A40008100809180008160809380008091B1005E
:100A500084608093B1008091B00081608093B00089
:100A600080917A00846080937A0080917A0082601D
:100A700080937A0080917A00816080937A008091DF
:100A80007A00806880937A001092C10061E087E06C
:100A90000E94E50160E086E00E94E50161E087E0F8
:100AA0000E94E50160E086E00E94E501E0916901B5
:100AB000F0916A0182E08083E0916501F091660126
:100AC0001082E0916701F09168018FEC80831092B1
:100AD0007101E0916D01F0916E0186E08083E091FB
:100AE0006B01F0916C01808180618083E0916B01EA
:100AF000F0916C01808188608083E0916B01F091BE
:100B00006C01808180688083E0916B01F0916C01C1
:100B100080818F7D808382E00E940D0334EBE32E81
:100B200030E0F32E40EAC42E40E0D42E50E0A52E53
:100B300050E0B52E60E087E00E94990162E070E02D
:100B400080E090E00E943B0261E087E00E94990112
:100B50006AE070E080E090E00E943B0260E087E0A5
:100B60000E949901F7016491F6018491E82FF0E069
:100B7000EE0FFF1FE057FF4F8591949100E412E4C0
:100B80002FE030E040E00E946A04611571058105A4
:100B9000910529F06F5F7F4F8F4F9F4F9F700E948D
:100BA000CA0626E933E44BE05DE30E942E0720E00D
:100BB00030E040E05FE30E942E070E9492062B0186
:100BC0003C01E1E0809109028111E0E0E195F0E073
:100BD000EA50FE4F848980680E9407036EE171E04D
:100BE00086EF91E00E94B903E0910902FAE04F1606
:100BF0005104610471040CF46BC0E23008F066C06B
:100C0000E150F0E0EA50FE4F848980680E940703BB
:100C100068E271E086EF91E00E94B90368EE73E04C
:100C200080E090E00E943B0267E371E089E591E09B
:100C30000E94B90377FE5BC06DE289E591E00E94F6
:100C40002C0122273327A901241935094609570900
:100C500019A2CE0181963C019AE0292E312C412C1B
:100C6000512CCA01B901A20191010E94C307605D24
:100C7000F30162933F01211531054105510589F7C3
:100C80006114710429F0B30189E591E00E94B90370
:100C900069E471E089E591E00E94B9036CE471E0D8
:100CA00089E591E00E94B90368EE73E080E090E08E
:100CB0000E943B02A114B10409F43CCF0E94F6004B
:100CC000882309F437CF0E94000034CFE1E099CFA8
:100CD000E23058F4E150F0E0EA50FE4F8489806839
:100CE0000E9407036CE271E095CFE1E0F4CFA3012D
:100CF000920119A2CE0181963C018AE0282E312C66
:100D0000412C512CCA01B901A20191010E94C307D3
:100D1000605DF30162933F012115310541055105E5
:100D200089F7AECF0E9499066894B1110C942807F8
:100D300008950E940D0788F09F5798F0B92F9927C2
:100D4000B751B0F0E1F0660F771F881F991F1AF0B6
:100D5000BA95C9F714C0B13091F00E942707B1E0ED
:100D600008950C942707672F782F8827B85F39F0EC
:100D7000B93FCCF3869577956795B395D9F73EF44F
:100D800090958095709561957F4F8F4F9F4F0895F7
:100D9000E89409C097FB3EF4909580957095619515
:100DA0007F4F8F4F9F4F9923A9F0F92F96E9BB27CB
:100DB0009395F695879577956795B795F111F8CF47
:100DC000FAF4BB0F11F460FF1BC06F5F7F4F8F4FB2
:100DD0009F4F16C0882311F096E911C0772321F0A8
:100DE0009EE8872F762F05C0662371F096E8862F40
:100DF00070E060E02AF09A95660F771F881FDAF797
:100E0000880F9695879597F9089557FD9058440F48
:100E1000551F59F05F3F71F04795880F97FB991F59
:100E200061F09F3F79F08795089512161306140616
:100E3000551FF2CF4695F1DF08C0161617061806A3
:100E4000991FF1CF86957105610508940895E8947E
:100E5000BB2766277727CB0197F908950E944107A2
:100E60000C94B2070E94A40738F00E94AB0720F050
:100E7000952311F00C949B070C94A10711240C945A
:100E800028070E94050770F3959FC1F3950F50E066
:100E9000551F629FF001729FBB27F00DB11D639F2C
:100EA000AA27F00DB11DAA1F649F6627B00DA11DD2
:100EB000661F829F2227B00DA11D621F739FB00D78
:100EC000A11D621F839FA00D611D221F749F3327E8
:100ED000A00D611D231F849F600D211D822F762F81
:100EE0006A2F11249F5750409AF0F1F088234AF05E
:100EF000EE0FFF1FBB1F661F771F881F91505040CA
:100F0000A9F79E3F510580F00C949B070C9428078D
:100F10005F3FE4F3983ED4F3869577956795B79550
:100F2000F795E7959F5FC1F7FE2B880F911D96956A
:100F3000879597F9089597F99F6780E870E060E0DA
:100F400008959FEF80EC089500240A941616170662
:100F500018060906089500240A94121613061406AA
:100F600005060895092E0394000C11F4882352F00D
:100F7000BB0F40F4BF2B11F460FF04C06F5F7F4FC5
:100F80008F4F9F4F0895A1E21A2EAA1BBB1BFD0194
:100F90000DC0AA1FBB1FEE1FFF1FA217B307E40758
:100FA000F50720F0A21BB30BE40BF50B661F771FB0
:100FB000881F991F1A9469F7609570958095909590
:100FC0009B01AC01BD01CF010895EE0FFF1F0590FD
:0A0FD000F491E02D0994F894FFCF8E
:100FDA00000000002C018C00B9007901EA00C80069
:100FEA00DC0000000000B3038C006E026D024F6249
:100FFA006A65637420697300466172005665727986
:10100A0020436C6F7365005468652064697374616A
:10101A006E6365206973203A00636D000D0A000053
:00000001FF
